{
  "_format": "hh-sol-artifact-1",
  "contractName": "DeltaOption",
  "sourceName": "contracts/DeltaOption.sol",
  "abi": [
    {
      "inputs": [],
      "stateMutability": "nonpayable",
      "type": "constructor"
    },
    {
      "inputs": [
        {
          "internalType": "string",
          "name": "token",
          "type": "string"
        },
        {
          "internalType": "uint256",
          "name": "ID",
          "type": "uint256"
        }
      ],
      "name": "buyOption",
      "outputs": [],
      "stateMutability": "payable",
      "type": "function"
    },
    {
      "inputs": [
        {
          "internalType": "string",
          "name": "token",
          "type": "string"
        },
        {
          "internalType": "uint256",
          "name": "ID",
          "type": "uint256"
        }
      ],
      "name": "cancelOption",
      "outputs": [],
      "stateMutability": "payable",
      "type": "function"
    },
    {
      "inputs": [
        {
          "internalType": "uint256",
          "name": "",
          "type": "uint256"
        }
      ],
      "name": "croOptions",
      "outputs": [
        {
          "internalType": "uint256",
          "name": "strike",
          "type": "uint256"
        },
        {
          "internalType": "uint256",
          "name": "premium",
          "type": "uint256"
        },
        {
          "internalType": "uint256",
          "name": "expiry",
          "type": "uint256"
        },
        {
          "internalType": "uint256",
          "name": "amount",
          "type": "uint256"
        },
        {
          "internalType": "bool",
          "name": "exercised",
          "type": "bool"
        },
        {
          "internalType": "bool",
          "name": "canceled",
          "type": "bool"
        },
        {
          "internalType": "uint256",
          "name": "id",
          "type": "uint256"
        },
        {
          "internalType": "uint256",
          "name": "latestCost",
          "type": "uint256"
        },
        {
          "internalType": "address payable",
          "name": "writer",
          "type": "address"
        },
        {
          "internalType": "address payable",
          "name": "buyer",
          "type": "address"
        }
      ],
      "stateMutability": "view",
      "type": "function"
    },
    {
      "inputs": [
        {
          "internalType": "uint256",
          "name": "",
          "type": "uint256"
        }
      ],
      "name": "ethOptions",
      "outputs": [
        {
          "internalType": "uint256",
          "name": "strike",
          "type": "uint256"
        },
        {
          "internalType": "uint256",
          "name": "premium",
          "type": "uint256"
        },
        {
          "internalType": "uint256",
          "name": "expiry",
          "type": "uint256"
        },
        {
          "internalType": "uint256",
          "name": "amount",
          "type": "uint256"
        },
        {
          "internalType": "bool",
          "name": "exercised",
          "type": "bool"
        },
        {
          "internalType": "bool",
          "name": "canceled",
          "type": "bool"
        },
        {
          "internalType": "uint256",
          "name": "id",
          "type": "uint256"
        },
        {
          "internalType": "uint256",
          "name": "latestCost",
          "type": "uint256"
        },
        {
          "internalType": "address payable",
          "name": "writer",
          "type": "address"
        },
        {
          "internalType": "address payable",
          "name": "buyer",
          "type": "address"
        }
      ],
      "stateMutability": "view",
      "type": "function"
    },
    {
      "inputs": [
        {
          "internalType": "string",
          "name": "token",
          "type": "string"
        },
        {
          "internalType": "uint256",
          "name": "ID",
          "type": "uint256"
        }
      ],
      "name": "exercise",
      "outputs": [],
      "stateMutability": "payable",
      "type": "function"
    },
    {
      "inputs": [],
      "name": "getCroOptions",
      "outputs": [
        {
          "components": [
            {
              "internalType": "uint256",
              "name": "strike",
              "type": "uint256"
            },
            {
              "internalType": "uint256",
              "name": "premium",
              "type": "uint256"
            },
            {
              "internalType": "uint256",
              "name": "expiry",
              "type": "uint256"
            },
            {
              "internalType": "uint256",
              "name": "amount",
              "type": "uint256"
            },
            {
              "internalType": "bool",
              "name": "exercised",
              "type": "bool"
            },
            {
              "internalType": "bool",
              "name": "canceled",
              "type": "bool"
            },
            {
              "internalType": "uint256",
              "name": "id",
              "type": "uint256"
            },
            {
              "internalType": "uint256",
              "name": "latestCost",
              "type": "uint256"
            },
            {
              "internalType": "address payable",
              "name": "writer",
              "type": "address"
            },
            {
              "internalType": "address payable",
              "name": "buyer",
              "type": "address"
            }
          ],
          "internalType": "struct DeltaOption.option[]",
          "name": "",
          "type": "tuple[]"
        }
      ],
      "stateMutability": "view",
      "type": "function"
    },
    {
      "inputs": [],
      "name": "getEthOptions",
      "outputs": [
        {
          "components": [
            {
              "internalType": "uint256",
              "name": "strike",
              "type": "uint256"
            },
            {
              "internalType": "uint256",
              "name": "premium",
              "type": "uint256"
            },
            {
              "internalType": "uint256",
              "name": "expiry",
              "type": "uint256"
            },
            {
              "internalType": "uint256",
              "name": "amount",
              "type": "uint256"
            },
            {
              "internalType": "bool",
              "name": "exercised",
              "type": "bool"
            },
            {
              "internalType": "bool",
              "name": "canceled",
              "type": "bool"
            },
            {
              "internalType": "uint256",
              "name": "id",
              "type": "uint256"
            },
            {
              "internalType": "uint256",
              "name": "latestCost",
              "type": "uint256"
            },
            {
              "internalType": "address payable",
              "name": "writer",
              "type": "address"
            },
            {
              "internalType": "address payable",
              "name": "buyer",
              "type": "address"
            }
          ],
          "internalType": "struct DeltaOption.option[]",
          "name": "",
          "type": "tuple[]"
        }
      ],
      "stateMutability": "view",
      "type": "function"
    },
    {
      "inputs": [
        {
          "internalType": "uint256",
          "name": "strike",
          "type": "uint256"
        },
        {
          "internalType": "uint256",
          "name": "spot",
          "type": "uint256"
        },
        {
          "internalType": "uint256",
          "name": "tknAmt",
          "type": "uint256"
        }
      ],
      "name": "getLatestCost",
      "outputs": [
        {
          "internalType": "uint256",
          "name": "",
          "type": "uint256"
        }
      ],
      "stateMutability": "pure",
      "type": "function"
    },
    {
      "inputs": [
        {
          "internalType": "string",
          "name": "token",
          "type": "string"
        }
      ],
      "name": "getTokenHash",
      "outputs": [
        {
          "internalType": "bytes32",
          "name": "",
          "type": "bytes32"
        }
      ],
      "stateMutability": "pure",
      "type": "function"
    },
    {
      "inputs": [
        {
          "internalType": "string",
          "name": "_token",
          "type": "string"
        }
      ],
      "name": "getUSDPrice",
      "outputs": [
        {
          "internalType": "uint256",
          "name": "rate",
          "type": "uint256"
        }
      ],
      "stateMutability": "view",
      "type": "function"
    },
    {
      "inputs": [
        {
          "internalType": "string",
          "name": "token",
          "type": "string"
        },
        {
          "internalType": "uint256",
          "name": "ID",
          "type": "uint256"
        }
      ],
      "name": "retrieveExpiredFunds",
      "outputs": [],
      "stateMutability": "payable",
      "type": "function"
    },
    {
      "inputs": [],
      "name": "updatePrices",
      "outputs": [],
      "stateMutability": "nonpayable",
      "type": "function"
    },
    {
      "inputs": [
        {
          "internalType": "string",
          "name": "token",
          "type": "string"
        },
        {
          "internalType": "uint256",
          "name": "strike",
          "type": "uint256"
        },
        {
          "internalType": "uint256",
          "name": "premium",
          "type": "uint256"
        },
        {
          "internalType": "uint256",
          "name": "expiry",
          "type": "uint256"
        },
        {
          "internalType": "uint256",
          "name": "tknAmt",
          "type": "uint256"
        }
      ],
      "name": "writeOption",
      "outputs": [],
      "stateMutability": "payable",
      "type": "function"
    }
  ],
  "bytecode": "0x608060405260405160200162000015906200015c565b604051602081830303815290604052805190602001206003556040516020016200003f90620001c3565b604051602081830303815290604052805190602001206004553480156200006557600080fd5b5073da7a001b254cd22e46d3eab04d937489c93174c36000806101000a81548173ffffffffffffffffffffffffffffffffffffffff021916908373ffffffffffffffffffffffffffffffffffffffff16021790555030600560006101000a81548173ffffffffffffffffffffffffffffffffffffffff021916908373ffffffffffffffffffffffffffffffffffffffff160217905550620001da565b600081905092915050565b7f4554480000000000000000000000000000000000000000000000000000000000600082015250565b60006200014460038362000101565b915062000151826200010c565b600382019050919050565b6000620001698262000135565b9150819050919050565b7f43524f0000000000000000000000000000000000000000000000000000000000600082015250565b6000620001ab60038362000101565b9150620001b88262000173565b600382019050919050565b6000620001d0826200019c565b9150819050919050565b61353880620001ea6000396000f3fe6080604052600436106100c25760003560e01c80635290d0611161007f578063997164bd11610059578063997164bd14610284578063a5da8495146102a0578063a8e2b9cd146102bc578063dfd0bf8d146102d8576100c2565b80635290d061146102005780636275c9e61461022b57806369f056ee14610247576100c2565b80630ca59d2f146100c75780631071a8d61461010d57806311aa63521461012957806327bf863814610166578063287ff907146101a357806349dd1262146101e9575b600080fd5b3480156100d357600080fd5b506100ee60048036038101906100e9919061253a565b610303565b6040516101049a999897969594939291906125d2565b60405180910390f35b610127600480360381019061012291906127b4565b6103c1565b005b34801561013557600080fd5b50610150600480360381019061014b919061284b565b61086a565b60405161015d91906128ad565b60405180910390f35b34801561017257600080fd5b5061018d600480360381019061018891906128c8565b61089a565b60405161019a919061291b565b60405180910390f35b3480156101af57600080fd5b506101ca60048036038101906101c5919061253a565b6108e1565b6040516101e09a999897969594939291906125d2565b60405180910390f35b3480156101f557600080fd5b506101fe61099f565b005b34801561020c57600080fd5b50610215610a29565b6040516102229190612adf565b60405180910390f35b61024560048036038101906102409190612b01565b610ba7565b005b34801561025357600080fd5b5061026e6004803603810190610269919061284b565b610f2f565b60405161027b919061291b565b60405180910390f35b61029e60048036038101906102999190612b01565b610fea565b005b6102ba60048036038101906102b59190612b01565b611378565b005b6102d660048036038101906102d19190612b01565b611700565b005b3480156102e457600080fd5b506102ed611a88565b6040516102fa9190612adf565b60405180910390f35b6007818154811061031357600080fd5b90600052602060002090600902016000915090508060000154908060010154908060020154908060030154908060040160009054906101000a900460ff16908060040160019054906101000a900460ff16908060050154908060060154908060070160009054906101000a900473ffffffffffffffffffffffffffffffffffffffff16908060080160009054906101000a900473ffffffffffffffffffffffffffffffffffffffff1690508a565b8460006103cd8261086a565b90506003548114806103e0575060045481145b61041f576040517f08c379a000000000000000000000000000000000000000000000000000000000815260040161041690612be0565b60405180910390fd5b600061042a8861086a565b905061043461099f565b60035481141561064a57833414610480576040517f08c379a000000000000000000000000000000000000000000000000000000000815260040161047790612c4c565b60405180910390fd5b600061048f886001548761089a565b905060066040518061014001604052808a815260200189815260200188815260200187815260200160001515815260200160001515815260200160068054905081526020018381526020013373ffffffffffffffffffffffffffffffffffffffff168152602001600073ffffffffffffffffffffffffffffffffffffffff1681525090806001815401808255809150506001900390600052602060002090600902016000909190919091506000820151816000015560208201518160010155604082015181600201556060820151816003015560808201518160040160006101000a81548160ff02191690831515021790555060a08201518160040160016101000a81548160ff02191690831515021790555060c0820151816005015560e082015181600601556101008201518160070160006101000a81548173ffffffffffffffffffffffffffffffffffffffff021916908373ffffffffffffffffffffffffffffffffffffffff1602179055506101208201518160080160006101000a81548173ffffffffffffffffffffffffffffffffffffffff021916908373ffffffffffffffffffffffffffffffffffffffff1602179055505050505b60045481141561086057833414610696576040517f08c379a000000000000000000000000000000000000000000000000000000000815260040161068d90612cb8565b60405180910390fd5b60006106a5886002548761089a565b905060076040518061014001604052808a815260200189815260200188815260200187815260200160001515815260200160001515815260200160078054905081526020018381526020013373ffffffffffffffffffffffffffffffffffffffff168152602001600073ffffffffffffffffffffffffffffffffffffffff1681525090806001815401808255809150506001900390600052602060002090600902016000909190919091506000820151816000015560208201518160010155604082015181600201556060820151816003015560808201518160040160006101000a81548160ff02191690831515021790555060a08201518160040160016101000a81548160ff02191690831515021790555060c0820151816005015560e082015181600601556101008201518160070160006101000a81548173ffffffffffffffffffffffffffffffffffffffff021916908373ffffffffffffffffffffffffffffffffffffffff1602179055506101208201518160080160006101000a81548173ffffffffffffffffffffffffffffffffffffffff021916908373ffffffffffffffffffffffffffffffffffffffff1602179055505050505b5050505050505050565b60008160405160200161087d9190612d52565b604051602081830303815290604052805190602001209050919050565b60006108d86108b76402540be40085611c0690919063ffffffff16565b6108ca8487611c0690919063ffffffff16565b611c1c90919063ffffffff16565b90509392505050565b600681815481106108f157600080fd5b90600052602060002090600902016000915090508060000154908060010154908060020154908060030154908060040160009054906101000a900460ff16908060040160019054906101000a900460ff16908060050154908060060154908060070160009054906101000a900473ffffffffffffffffffffffffffffffffffffffff16908060080160009054906101000a900473ffffffffffffffffffffffffffffffffffffffff1690508a565b6109dd6040518060400160405280600381526020017f4554480000000000000000000000000000000000000000000000000000000000815250610f2f565b600181905550610a216040518060400160405280600381526020017f43524f0000000000000000000000000000000000000000000000000000000000815250610f2f565b600281905550565b60606006805480602002602001604051908101604052809291908181526020016000905b82821015610b9e578382906000526020600020906009020160405180610140016040529081600082015481526020016001820154815260200160028201548152602001600382015481526020016004820160009054906101000a900460ff161515151581526020016004820160019054906101000a900460ff1615151515815260200160058201548152602001600682015481526020016007820160009054906101000a900473ffffffffffffffffffffffffffffffffffffffff1673ffffffffffffffffffffffffffffffffffffffff1673ffffffffffffffffffffffffffffffffffffffff1681526020016008820160009054906101000a900473ffffffffffffffffffffffffffffffffffffffff1673ffffffffffffffffffffffffffffffffffffffff1673ffffffffffffffffffffffffffffffffffffffff168152505081526020019060010190610a4d565b50505050905090565b816000610bb38261086a565b9050600354811480610bc6575060045481145b610c05576040517f08c379a0000000000000000000000000000000000000000000000000000000008152600401610bfc90612be0565b60405180910390fd5b6000610c108561086a565b9050600354811415610d9d57610d9c6006805480602002602001604051908101604052809291908181526020016000905b82821015610d92578382906000526020600020906009020160405180610140016040529081600082015481526020016001820154815260200160028201548152602001600382015481526020016004820160009054906101000a900460ff161515151581526020016004820160019054906101000a900460ff1615151515815260200160058201548152602001600682015481526020016007820160009054906101000a900473ffffffffffffffffffffffffffffffffffffffff1673ffffffffffffffffffffffffffffffffffffffff1673ffffffffffffffffffffffffffffffffffffffff1681526020016008820160009054906101000a900473ffffffffffffffffffffffffffffffffffffffff1673ffffffffffffffffffffffffffffffffffffffff1673ffffffffffffffffffffffffffffffffffffffff168152505081526020019060010190610c41565b5050505085611c32565b5b600454811415610f2857610f276007805480602002602001604051908101604052809291908181526020016000905b82821015610f1d578382906000526020600020906009020160405180610140016040529081600082015481526020016001820154815260200160028201548152602001600382015481526020016004820160009054906101000a900460ff161515151581526020016004820160019054906101000a900460ff1615151515815260200160058201548152602001600682015481526020016007820160009054906101000a900473ffffffffffffffffffffffffffffffffffffffff1673ffffffffffffffffffffffffffffffffffffffff1673ffffffffffffffffffffffffffffffffffffffff1681526020016008820160009054906101000a900473ffffffffffffffffffffffffffffffffffffffff1673ffffffffffffffffffffffffffffffffffffffff1673ffffffffffffffffffffffffffffffffffffffff168152505081526020019060010190610dcc565b5050505085611c32565b5b5050505050565b60008060008054906101000a900473ffffffffffffffffffffffffffffffffffffffff1673ffffffffffffffffffffffffffffffffffffffff166365555bcc846040518263ffffffff1660e01b8152600401610f8b9190612dee565b60606040518083038186803b158015610fa357600080fd5b505afa158015610fb7573d6000803e3d6000fd5b505050506040513d601f19601f82011682018060405250810190610fdb9190612ea1565b90508060000151915050919050565b816000610ff68261086a565b9050600354811480611009575060045481145b611048576040517f08c379a000000000000000000000000000000000000000000000000000000000815260040161103f90612be0565b60405180910390fd5b60006110538561086a565b90506003548114156111e3576111e26006805480602002602001604051908101604052809291908181526020016000905b828210156111d5578382906000526020600020906009020160405180610140016040529081600082015481526020016001820154815260200160028201548152602001600382015481526020016004820160009054906101000a900460ff161515151581526020016004820160019054906101000a900460ff1615151515815260200160058201548152602001600682015481526020016007820160009054906101000a900473ffffffffffffffffffffffffffffffffffffffff1673ffffffffffffffffffffffffffffffffffffffff1673ffffffffffffffffffffffffffffffffffffffff1681526020016008820160009054906101000a900473ffffffffffffffffffffffffffffffffffffffff1673ffffffffffffffffffffffffffffffffffffffff1673ffffffffffffffffffffffffffffffffffffffff168152505081526020019060010190611084565b5050505085600154611e23565b5b600454811415611371576113706007805480602002602001604051908101604052809291908181526020016000905b82821015611363578382906000526020600020906009020160405180610140016040529081600082015481526020016001820154815260200160028201548152602001600382015481526020016004820160009054906101000a900460ff161515151581526020016004820160019054906101000a900460ff1615151515815260200160058201548152602001600682015481526020016007820160009054906101000a900473ffffffffffffffffffffffffffffffffffffffff1673ffffffffffffffffffffffffffffffffffffffff1673ffffffffffffffffffffffffffffffffffffffff1681526020016008820160009054906101000a900473ffffffffffffffffffffffffffffffffffffffff1673ffffffffffffffffffffffffffffffffffffffff1673ffffffffffffffffffffffffffffffffffffffff168152505081526020019060010190611212565b5050505085600254611e23565b5b5050505050565b8160006113848261086a565b9050600354811480611397575060045481145b6113d6576040517f08c379a00000000000000000000000000000000000000000000000000000000081526004016113cd90612be0565b60405180910390fd5b60006113e18561086a565b905060035481141561156e5761156d6006805480602002602001604051908101604052809291908181526020016000905b82821015611563578382906000526020600020906009020160405180610140016040529081600082015481526020016001820154815260200160028201548152602001600382015481526020016004820160009054906101000a900460ff161515151581526020016004820160019054906101000a900460ff1615151515815260200160058201548152602001600682015481526020016007820160009054906101000a900473ffffffffffffffffffffffffffffffffffffffff1673ffffffffffffffffffffffffffffffffffffffff1673ffffffffffffffffffffffffffffffffffffffff1681526020016008820160009054906101000a900473ffffffffffffffffffffffffffffffffffffffff1673ffffffffffffffffffffffffffffffffffffffff1673ffffffffffffffffffffffffffffffffffffffff168152505081526020019060010190611412565b5050505085612100565b5b6004548114156116f9576116f86007805480602002602001604051908101604052809291908181526020016000905b828210156116ee578382906000526020600020906009020160405180610140016040529081600082015481526020016001820154815260200160028201548152602001600382015481526020016004820160009054906101000a900460ff161515151581526020016004820160019054906101000a900460ff1615151515815260200160058201548152602001600682015481526020016007820160009054906101000a900473ffffffffffffffffffffffffffffffffffffffff1673ffffffffffffffffffffffffffffffffffffffff1673ffffffffffffffffffffffffffffffffffffffff1681526020016008820160009054906101000a900473ffffffffffffffffffffffffffffffffffffffff1673ffffffffffffffffffffffffffffffffffffffff1673ffffffffffffffffffffffffffffffffffffffff16815250508152602001906001019061159d565b5050505085612100565b5b5050505050565b81600061170c8261086a565b905060035481148061171f575060045481145b61175e576040517f08c379a000000000000000000000000000000000000000000000000000000000815260040161175590612be0565b60405180910390fd5b60006117698561086a565b90506003548114156118f6576118f56006805480602002602001604051908101604052809291908181526020016000905b828210156118eb578382906000526020600020906009020160405180610140016040529081600082015481526020016001820154815260200160028201548152602001600382015481526020016004820160009054906101000a900460ff161515151581526020016004820160019054906101000a900460ff1615151515815260200160058201548152602001600682015481526020016007820160009054906101000a900473ffffffffffffffffffffffffffffffffffffffff1673ffffffffffffffffffffffffffffffffffffffff1673ffffffffffffffffffffffffffffffffffffffff1681526020016008820160009054906101000a900473ffffffffffffffffffffffffffffffffffffffff1673ffffffffffffffffffffffffffffffffffffffff1673ffffffffffffffffffffffffffffffffffffffff16815250508152602001906001019061179a565b50505050856122fa565b5b600454811415611a8157611a806007805480602002602001604051908101604052809291908181526020016000905b82821015611a76578382906000526020600020906009020160405180610140016040529081600082015481526020016001820154815260200160028201548152602001600382015481526020016004820160009054906101000a900460ff161515151581526020016004820160019054906101000a900460ff1615151515815260200160058201548152602001600682015481526020016007820160009054906101000a900473ffffffffffffffffffffffffffffffffffffffff1673ffffffffffffffffffffffffffffffffffffffff1673ffffffffffffffffffffffffffffffffffffffff1681526020016008820160009054906101000a900473ffffffffffffffffffffffffffffffffffffffff1673ffffffffffffffffffffffffffffffffffffffff1673ffffffffffffffffffffffffffffffffffffffff168152505081526020019060010190611925565b50505050856122fa565b5b5050505050565b60606007805480602002602001604051908101604052809291908181526020016000905b82821015611bfd578382906000526020600020906009020160405180610140016040529081600082015481526020016001820154815260200160028201548152602001600382015481526020016004820160009054906101000a900460ff161515151581526020016004820160019054906101000a900460ff1615151515815260200160058201548152602001600682015481526020016007820160009054906101000a900473ffffffffffffffffffffffffffffffffffffffff1673ffffffffffffffffffffffffffffffffffffffff1673ffffffffffffffffffffffffffffffffffffffff1681526020016008820160009054906101000a900473ffffffffffffffffffffffffffffffffffffffff1673ffffffffffffffffffffffffffffffffffffffff1673ffffffffffffffffffffffffffffffffffffffff168152505081526020019060010190611aac565b50505050905090565b60008183611c149190612efd565b905092915050565b60008183611c2a9190612f86565b905092915050565b818181518110611c4557611c44612fb7565b5b6020026020010151610100015173ffffffffffffffffffffffffffffffffffffffff163373ffffffffffffffffffffffffffffffffffffffff1614611cbf576040517f08c379a0000000000000000000000000000000000000000000000000000000008152600401611cb690613032565b60405180910390fd5b42828281518110611cd357611cd2612fb7565b5b60200260200101516040015111158015611d095750818181518110611cfb57611cfa612fb7565b5b602002602001015160800151155b8015611d315750818181518110611d2357611d22612fb7565b5b602002602001015160a00151155b611d70576040517f08c379a0000000000000000000000000000000000000000000000000000000008152600401611d67906130c4565b60405180910390fd5b818181518110611d8357611d82612fb7565b5b6020026020010151610100015173ffffffffffffffffffffffffffffffffffffffff166108fc838381518110611dbc57611dbb612fb7565b5b6020026020010151606001519081150290604051600060405180830381858888f19350505050158015611df3573d6000803e3d6000fd5b506001828281518110611e0957611e08612fb7565b5b602002602001015160a00190151590811515815250505050565b3373ffffffffffffffffffffffffffffffffffffffff16838381518110611e4d57611e4c612fb7565b5b6020026020010151610120015173ffffffffffffffffffffffffffffffffffffffff1614611eb0576040517f08c379a0000000000000000000000000000000000000000000000000000000008152600401611ea790613130565b60405180910390fd5b828281518110611ec357611ec2612fb7565b5b60200260200101516080015115611f0f576040517f08c379a0000000000000000000000000000000000000000000000000000000008152600401611f06906131c2565b60405180910390fd5b42838381518110611f2357611f22612fb7565b5b60200260200101516040015111611f6f576040517f08c379a0000000000000000000000000000000000000000000000000000000008152600401611f669061322e565b60405180910390fd5b611f7761099f565b6000611fc0848481518110611f8f57611f8e612fb7565b5b60200260200101516000015183868681518110611faf57611fae612fb7565b5b60200260200101516060015161089a565b9050803414612004576040517f08c379a0000000000000000000000000000000000000000000000000000000008152600401611ffb906132c0565b60405180910390fd5b83838151811061201757612016612fb7565b5b6020026020010151610100015173ffffffffffffffffffffffffffffffffffffffff166108fc829081150290604051600060405180830381858888f19350505050158015612069573d6000803e3d6000fd5b503373ffffffffffffffffffffffffffffffffffffffff166108fc85858151811061209757612096612fb7565b5b6020026020010151606001519081150290604051600060405180830381858888f193505050501580156120ce573d6000803e3d6000fd5b5060018484815181106120e4576120e3612fb7565b5b6020026020010151608001901515908115158152505050505050565b81818151811061211357612112612fb7565b5b602002602001015160a001511561215f576040517f08c379a000000000000000000000000000000000000000000000000000000000815260040161215690613352565b60405180910390fd5b4282828151811061217357612172612fb7565b5b602002602001015160400151116121bf576040517f08c379a00000000000000000000000000000000000000000000000000000000081526004016121b6906133e4565b60405180910390fd5b8181815181106121d2576121d1612fb7565b5b602002602001015160200151341461221f576040517f08c379a000000000000000000000000000000000000000000000000000000000815260040161221690613476565b60405180910390fd5b81818151811061223257612231612fb7565b5b6020026020010151610100015173ffffffffffffffffffffffffffffffffffffffff166108fc83838151811061226b5761226a612fb7565b5b6020026020010151602001519081150290604051600060405180830381858888f193505050501580156122a2573d6000803e3d6000fd5b50338282815181106122b7576122b6612fb7565b5b6020026020010151610120019073ffffffffffffffffffffffffffffffffffffffff16908173ffffffffffffffffffffffffffffffffffffffff16815250505050565b81818151811061230d5761230c612fb7565b5b6020026020010151610100015173ffffffffffffffffffffffffffffffffffffffff163373ffffffffffffffffffffffffffffffffffffffff1614612387576040517f08c379a000000000000000000000000000000000000000000000000000000000815260040161237e90613032565b60405180910390fd5b81818151811061239a57612399612fb7565b5b602002602001015160a001511580156123fe5750600073ffffffffffffffffffffffffffffffffffffffff168282815181106123d9576123d8612fb7565b5b6020026020010151610120015173ffffffffffffffffffffffffffffffffffffffff16145b61243d576040517f08c379a0000000000000000000000000000000000000000000000000000000008152600401612434906134e2565b60405180910390fd5b8181815181106124505761244f612fb7565b5b6020026020010151610100015173ffffffffffffffffffffffffffffffffffffffff166108fc83838151811061248957612488612fb7565b5b6020026020010151606001519081150290604051600060405180830381858888f193505050501580156124c0573d6000803e3d6000fd5b5060018282815181106124d6576124d5612fb7565b5b602002602001015160a00190151590811515815250505050565b6000604051905090565b600080fd5b600080fd5b6000819050919050565b61251781612504565b811461252257600080fd5b50565b6000813590506125348161250e565b92915050565b6000602082840312156125505761254f6124fa565b5b600061255e84828501612525565b91505092915050565b61257081612504565b82525050565b60008115159050919050565b61258b81612576565b82525050565b600073ffffffffffffffffffffffffffffffffffffffff82169050919050565b60006125bc82612591565b9050919050565b6125cc816125b1565b82525050565b6000610140820190506125e8600083018d612567565b6125f5602083018c612567565b612602604083018b612567565b61260f606083018a612567565b61261c6080830189612582565b61262960a0830188612582565b61263660c0830187612567565b61264360e0830186612567565b6126516101008301856125c3565b61265f6101208301846125c3565b9b9a5050505050505050505050565b600080fd5b600080fd5b6000601f19601f8301169050919050565b7f4e487b7100000000000000000000000000000000000000000000000000000000600052604160045260246000fd5b6126c182612678565b810181811067ffffffffffffffff821117156126e0576126df612689565b5b80604052505050565b60006126f36124f0565b90506126ff82826126b8565b919050565b600067ffffffffffffffff82111561271f5761271e612689565b5b61272882612678565b9050602081019050919050565b82818337600083830152505050565b600061275761275284612704565b6126e9565b90508281526020810184848401111561277357612772612673565b5b61277e848285612735565b509392505050565b600082601f83011261279b5761279a61266e565b5b81356127ab848260208601612744565b91505092915050565b600080600080600060a086880312156127d0576127cf6124fa565b5b600086013567ffffffffffffffff8111156127ee576127ed6124ff565b5b6127fa88828901612786565b955050602061280b88828901612525565b945050604061281c88828901612525565b935050606061282d88828901612525565b925050608061283e88828901612525565b9150509295509295909350565b600060208284031215612861576128606124fa565b5b600082013567ffffffffffffffff81111561287f5761287e6124ff565b5b61288b84828501612786565b91505092915050565b6000819050919050565b6128a781612894565b82525050565b60006020820190506128c2600083018461289e565b92915050565b6000806000606084860312156128e1576128e06124fa565b5b60006128ef86828701612525565b935050602061290086828701612525565b925050604061291186828701612525565b9150509250925092565b60006020820190506129306000830184612567565b92915050565b600081519050919050565b600082825260208201905092915050565b6000819050602082019050919050565b61296b81612504565b82525050565b61297a81612576565b82525050565b612989816125b1565b82525050565b610140820160008201516129a66000850182612962565b5060208201516129b96020850182612962565b5060408201516129cc6040850182612962565b5060608201516129df6060850182612962565b5060808201516129f26080850182612971565b5060a0820151612a0560a0850182612971565b5060c0820151612a1860c0850182612962565b5060e0820151612a2b60e0850182612962565b50610100820151612a40610100850182612980565b50610120820151612a55610120850182612980565b50505050565b6000612a67838361298f565b6101408301905092915050565b6000602082019050919050565b6000612a8c82612936565b612a968185612941565b9350612aa183612952565b8060005b83811015612ad2578151612ab98882612a5b565b9750612ac483612a74565b925050600181019050612aa5565b5085935050505092915050565b60006020820190508181036000830152612af98184612a81565b905092915050565b60008060408385031215612b1857612b176124fa565b5b600083013567ffffffffffffffff811115612b3657612b356124ff565b5b612b4285828601612786565b9250506020612b5385828601612525565b9150509250929050565b600082825260208201905092915050565b7f4f6e6c792045544820616e642043524f20746f6b656e7320617265207375707060008201527f6f72746564000000000000000000000000000000000000000000000000000000602082015250565b6000612bca602583612b5d565b9150612bd582612b6e565b604082019050919050565b60006020820190508181036000830152612bf981612bbd565b9050919050565b7f496e636f727265637420616d6f756e74206f662045544820737570706c696564600082015250565b6000612c36602083612b5d565b9150612c4182612c00565b602082019050919050565b60006020820190508181036000830152612c6581612c29565b9050919050565b7f496e636f727265637420616d6f756e74206f662043524f20737570706c696564600082015250565b6000612ca2602083612b5d565b9150612cad82612c6c565b602082019050919050565b60006020820190508181036000830152612cd181612c95565b9050919050565b600081519050919050565b600081905092915050565b60005b83811015612d0c578082015181840152602081019050612cf1565b83811115612d1b576000848401525b50505050565b6000612d2c82612cd8565b612d368185612ce3565b9350612d46818560208601612cee565b80840191505092915050565b6000612d5e8284612d21565b915081905092915050565b6000612d7482612cd8565b612d7e8185612b5d565b9350612d8e818560208601612cee565b612d9781612678565b840191505092915050565b7f5553440000000000000000000000000000000000000000000000000000000000600082015250565b6000612dd8600383612b5d565b9150612de382612da2565b602082019050919050565b60006040820190508181036000830152612e088184612d69565b90508181036020830152612e1b81612dcb565b905092915050565b600080fd5b600081519050612e378161250e565b92915050565b600060608284031215612e5357612e52612e23565b5b612e5d60606126e9565b90506000612e6d84828501612e28565b6000830152506020612e8184828501612e28565b6020830152506040612e9584828501612e28565b60408301525092915050565b600060608284031215612eb757612eb66124fa565b5b6000612ec584828501612e3d565b91505092915050565b7f4e487b7100000000000000000000000000000000000000000000000000000000600052601160045260246000fd5b6000612f0882612504565b9150612f1383612504565b9250817fffffffffffffffffffffffffffffffffffffffffffffffffffffffffffffffff0483118215151615612f4c57612f4b612ece565b5b828202905092915050565b7f4e487b7100000000000000000000000000000000000000000000000000000000600052601260045260246000fd5b6000612f9182612504565b9150612f9c83612504565b925082612fac57612fab612f57565b5b828204905092915050565b7f4e487b7100000000000000000000000000000000000000000000000000000000600052603260045260246000fd5b7f596f7520646964206e6f742077726974652074686973206f7074696f6e000000600082015250565b600061301c601d83612b5d565b915061302782612fe6565b602082019050919050565b6000602082019050818103600083015261304b8161300f565b9050919050565b7f54686973206f7074696f6e206973206e6f7420656c696769626c6520666f722060008201527f7769746864726177000000000000000000000000000000000000000000000000602082015250565b60006130ae602883612b5d565b91506130b982613052565b604082019050919050565b600060208201905081810360008301526130dd816130a1565b9050919050565b7f596f7520646f206e6f74206f776e2074686973206f7074696f6e000000000000600082015250565b600061311a601a83612b5d565b9150613125826130e4565b602082019050919050565b600060208201905081810360008301526131498161310d565b9050919050565b7f4f7074696f6e2068617320616c7265616479206265656e20657865726369736560008201527f6400000000000000000000000000000000000000000000000000000000000000602082015250565b60006131ac602183612b5d565b91506131b782613150565b604082019050919050565b600060208201905081810360008301526131db8161319f565b9050919050565b7f4f7074696f6e2069732065787069726564000000000000000000000000000000600082015250565b6000613218601183612b5d565b9150613223826131e2565b602082019050919050565b600060208201905081810360008301526132478161320b565b9050919050565b7f496e636f727265637420636f696e20616d6f756e742073656e7420746f20657860008201527f6572636973650000000000000000000000000000000000000000000000000000602082015250565b60006132aa602683612b5d565b91506132b58261324e565b604082019050919050565b600060208201905081810360008301526132d98161329d565b9050919050565b7f4f7074696f6e2069732063616e63656c656420616e642063616e6e6f7420626560008201527f20626f7567687400000000000000000000000000000000000000000000000000602082015250565b600061333c602783612b5d565b9150613347826132e0565b604082019050919050565b6000602082019050818103600083015261336b8161332f565b9050919050565b7f4f7074696f6e206973206578706972656420616e642063616e6e6f742062652060008201527f626f756768740000000000000000000000000000000000000000000000000000602082015250565b60006133ce602683612b5d565b91506133d982613372565b604082019050919050565b600060208201905081810360008301526133fd816133c1565b9050919050565b7f496e636f727265637420616d6f756e74206f662063757272656e7420636f696e60008201527f2073656e7420666f72207072656d69756d000000000000000000000000000000602082015250565b6000613460603183612b5d565b915061346b82613404565b604082019050919050565b6000602082019050818103600083015261348f81613453565b9050919050565b7f54686973206f7074696f6e2063616e6e6f742062652063616e63656c65640000600082015250565b60006134cc601e83612b5d565b91506134d782613496565b602082019050919050565b600060208201905081810360008301526134fb816134bf565b905091905056fea2646970667358221220956b5a9c4a837d272c6deb94e07bd214edd8f05f05551152452ed38e8e2ff4aa64736f6c63430008090033",
  "linkReferences": {},
  "deployedLinkReferences": {}
}