{
  "_format": "hh-sol-artifact-1",
  "contractName": "DeltaOption",
  "sourceName": "contracts/DeltaOption.sol",
  "abi": [
    {
      "inputs": [],
      "stateMutability": "nonpayable",
      "type": "constructor"
    },
    {
      "inputs": [
        {
          "internalType": "string",
          "name": "token",
          "type": "string"
        },
        {
          "internalType": "uint256",
          "name": "ID",
          "type": "uint256"
        }
      ],
      "name": "buyOption",
      "outputs": [],
      "stateMutability": "payable",
      "type": "function"
    },
    {
      "inputs": [
        {
          "internalType": "string",
          "name": "token",
          "type": "string"
        },
        {
          "internalType": "uint256",
          "name": "ID",
          "type": "uint256"
        }
      ],
      "name": "cancelOption",
      "outputs": [],
      "stateMutability": "payable",
      "type": "function"
    },
    {
      "inputs": [
        {
          "internalType": "uint256",
          "name": "",
          "type": "uint256"
        }
      ],
      "name": "croOptions",
      "outputs": [
        {
          "internalType": "uint256",
          "name": "strike",
          "type": "uint256"
        },
        {
          "internalType": "uint256",
          "name": "premium",
          "type": "uint256"
        },
        {
          "internalType": "uint256",
          "name": "expiry",
          "type": "uint256"
        },
        {
          "internalType": "uint256",
          "name": "amount",
          "type": "uint256"
        },
        {
          "internalType": "bool",
          "name": "exercised",
          "type": "bool"
        },
        {
          "internalType": "bool",
          "name": "canceled",
          "type": "bool"
        },
        {
          "internalType": "uint256",
          "name": "id",
          "type": "uint256"
        },
        {
          "internalType": "uint256",
          "name": "latestCost",
          "type": "uint256"
        },
        {
          "internalType": "address payable",
          "name": "writer",
          "type": "address"
        },
        {
          "internalType": "address payable",
          "name": "buyer",
          "type": "address"
        }
      ],
      "stateMutability": "view",
      "type": "function"
    },
    {
      "inputs": [
        {
          "internalType": "uint256",
          "name": "",
          "type": "uint256"
        }
      ],
      "name": "ethOptions",
      "outputs": [
        {
          "internalType": "uint256",
          "name": "strike",
          "type": "uint256"
        },
        {
          "internalType": "uint256",
          "name": "premium",
          "type": "uint256"
        },
        {
          "internalType": "uint256",
          "name": "expiry",
          "type": "uint256"
        },
        {
          "internalType": "uint256",
          "name": "amount",
          "type": "uint256"
        },
        {
          "internalType": "bool",
          "name": "exercised",
          "type": "bool"
        },
        {
          "internalType": "bool",
          "name": "canceled",
          "type": "bool"
        },
        {
          "internalType": "uint256",
          "name": "id",
          "type": "uint256"
        },
        {
          "internalType": "uint256",
          "name": "latestCost",
          "type": "uint256"
        },
        {
          "internalType": "address payable",
          "name": "writer",
          "type": "address"
        },
        {
          "internalType": "address payable",
          "name": "buyer",
          "type": "address"
        }
      ],
      "stateMutability": "view",
      "type": "function"
    },
    {
      "inputs": [
        {
          "internalType": "string",
          "name": "token",
          "type": "string"
        },
        {
          "internalType": "uint256",
          "name": "ID",
          "type": "uint256"
        }
      ],
      "name": "exercise",
      "outputs": [],
      "stateMutability": "payable",
      "type": "function"
    },
    {
      "inputs": [],
      "name": "getCroOptions",
      "outputs": [
        {
          "components": [
            {
              "internalType": "uint256",
              "name": "strike",
              "type": "uint256"
            },
            {
              "internalType": "uint256",
              "name": "premium",
              "type": "uint256"
            },
            {
              "internalType": "uint256",
              "name": "expiry",
              "type": "uint256"
            },
            {
              "internalType": "uint256",
              "name": "amount",
              "type": "uint256"
            },
            {
              "internalType": "bool",
              "name": "exercised",
              "type": "bool"
            },
            {
              "internalType": "bool",
              "name": "canceled",
              "type": "bool"
            },
            {
              "internalType": "uint256",
              "name": "id",
              "type": "uint256"
            },
            {
              "internalType": "uint256",
              "name": "latestCost",
              "type": "uint256"
            },
            {
              "internalType": "address payable",
              "name": "writer",
              "type": "address"
            },
            {
              "internalType": "address payable",
              "name": "buyer",
              "type": "address"
            }
          ],
          "internalType": "struct DeltaOption.option[]",
          "name": "",
          "type": "tuple[]"
        }
      ],
      "stateMutability": "view",
      "type": "function"
    },
    {
      "inputs": [],
      "name": "getEthOptions",
      "outputs": [
        {
          "components": [
            {
              "internalType": "uint256",
              "name": "strike",
              "type": "uint256"
            },
            {
              "internalType": "uint256",
              "name": "premium",
              "type": "uint256"
            },
            {
              "internalType": "uint256",
              "name": "expiry",
              "type": "uint256"
            },
            {
              "internalType": "uint256",
              "name": "amount",
              "type": "uint256"
            },
            {
              "internalType": "bool",
              "name": "exercised",
              "type": "bool"
            },
            {
              "internalType": "bool",
              "name": "canceled",
              "type": "bool"
            },
            {
              "internalType": "uint256",
              "name": "id",
              "type": "uint256"
            },
            {
              "internalType": "uint256",
              "name": "latestCost",
              "type": "uint256"
            },
            {
              "internalType": "address payable",
              "name": "writer",
              "type": "address"
            },
            {
              "internalType": "address payable",
              "name": "buyer",
              "type": "address"
            }
          ],
          "internalType": "struct DeltaOption.option[]",
          "name": "",
          "type": "tuple[]"
        }
      ],
      "stateMutability": "view",
      "type": "function"
    },
    {
      "inputs": [
        {
          "internalType": "uint256",
          "name": "strike",
          "type": "uint256"
        },
        {
          "internalType": "uint256",
          "name": "spot",
          "type": "uint256"
        },
        {
          "internalType": "uint256",
          "name": "tknAmt",
          "type": "uint256"
        }
      ],
      "name": "getLatestCost",
      "outputs": [
        {
          "internalType": "uint256",
          "name": "",
          "type": "uint256"
        }
      ],
      "stateMutability": "pure",
      "type": "function"
    },
    {
      "inputs": [
        {
          "internalType": "string",
          "name": "token",
          "type": "string"
        }
      ],
      "name": "getTokenHash",
      "outputs": [
        {
          "internalType": "bytes32",
          "name": "",
          "type": "bytes32"
        }
      ],
      "stateMutability": "pure",
      "type": "function"
    },
    {
      "inputs": [
        {
          "internalType": "string",
          "name": "_token",
          "type": "string"
        }
      ],
      "name": "getUSDPrice",
      "outputs": [
        {
          "internalType": "uint256",
          "name": "rate",
          "type": "uint256"
        }
      ],
      "stateMutability": "view",
      "type": "function"
    },
    {
      "inputs": [
        {
          "internalType": "string",
          "name": "token",
          "type": "string"
        },
        {
          "internalType": "uint256",
          "name": "ID",
          "type": "uint256"
        }
      ],
      "name": "retrieveExpiredFunds",
      "outputs": [],
      "stateMutability": "payable",
      "type": "function"
    },
    {
      "inputs": [],
      "name": "updatePrices",
      "outputs": [],
      "stateMutability": "nonpayable",
      "type": "function"
    },
    {
      "inputs": [
        {
          "internalType": "string",
          "name": "token",
          "type": "string"
        },
        {
          "internalType": "uint256",
          "name": "strike",
          "type": "uint256"
        },
        {
          "internalType": "uint256",
          "name": "premium",
          "type": "uint256"
        },
        {
          "internalType": "uint256",
          "name": "expiry",
          "type": "uint256"
        },
        {
          "internalType": "uint256",
          "name": "tknAmt",
          "type": "uint256"
        }
      ],
      "name": "writeOption",
      "outputs": [],
      "stateMutability": "payable",
      "type": "function"
    }
  ],
  "bytecode": "0x608060405260405160200162000015906200015c565b604051602081830303815290604052805190602001206003556040516020016200003f90620001c3565b604051602081830303815290604052805190602001206004553480156200006557600080fd5b5073da7a001b254cd22e46d3eab04d937489c93174c36000806101000a81548173ffffffffffffffffffffffffffffffffffffffff021916908373ffffffffffffffffffffffffffffffffffffffff16021790555030600560006101000a81548173ffffffffffffffffffffffffffffffffffffffff021916908373ffffffffffffffffffffffffffffffffffffffff160217905550620001da565b600081905092915050565b7f4554480000000000000000000000000000000000000000000000000000000000600082015250565b60006200014460038362000101565b915062000151826200010c565b600382019050919050565b6000620001698262000135565b9150819050919050565b7f43524f0000000000000000000000000000000000000000000000000000000000600082015250565b6000620001ab60038362000101565b9150620001b88262000173565b600382019050919050565b6000620001d0826200019c565b9150819050919050565b61360380620001ea6000396000f3fe6080604052600436106100c25760003560e01c80635290d0611161007f578063997164bd11610059578063997164bd14610284578063a5da8495146102a0578063a8e2b9cd146102bc578063dfd0bf8d146102d8576100c2565b80635290d061146102005780636275c9e61461022b57806369f056ee14610247576100c2565b80630ca59d2f146100c75780631071a8d61461010d57806311aa63521461012957806327bf863814610166578063287ff907146101a357806349dd1262146101e9575b600080fd5b3480156100d357600080fd5b506100ee60048036038101906100e99190612605565b610303565b6040516101049a9998979695949392919061269d565b60405180910390f35b6101276004803603810190610122919061287f565b6103c1565b005b34801561013557600080fd5b50610150600480360381019061014b9190612916565b61086a565b60405161015d9190612978565b60405180910390f35b34801561017257600080fd5b5061018d60048036038101906101889190612993565b61089a565b60405161019a91906129e6565b60405180910390f35b3480156101af57600080fd5b506101ca60048036038101906101c59190612605565b6108ca565b6040516101e09a9998979695949392919061269d565b60405180910390f35b3480156101f557600080fd5b506101fe610988565b005b34801561020c57600080fd5b50610215610a12565b6040516102229190612baa565b60405180910390f35b61024560048036038101906102409190612bcc565b610b90565b005b34801561025357600080fd5b5061026e60048036038101906102699190612916565b61111c565b60405161027b91906129e6565b60405180910390f35b61029e60048036038101906102999190612bcc565b6111d7565b005b6102ba60048036038101906102b59190612bcc565b611931565b005b6102d660048036038101906102d19190612bcc565b611e65565b005b3480156102e457600080fd5b506102ed612411565b6040516102fa9190612baa565b60405180910390f35b6007818154811061031357600080fd5b90600052602060002090600902016000915090508060000154908060010154908060020154908060030154908060040160009054906101000a900460ff16908060040160019054906101000a900460ff16908060050154908060060154908060070160009054906101000a900473ffffffffffffffffffffffffffffffffffffffff16908060080160009054906101000a900473ffffffffffffffffffffffffffffffffffffffff1690508a565b8460006103cd8261086a565b90506003548114806103e0575060045481145b61041f576040517f08c379a000000000000000000000000000000000000000000000000000000000815260040161041690612cab565b60405180910390fd5b600061042a8861086a565b9050610434610988565b60035481141561064a57833414610480576040517f08c379a000000000000000000000000000000000000000000000000000000000815260040161047790612d17565b60405180910390fd5b600061048f886001548761089a565b905060066040518061014001604052808a815260200189815260200188815260200187815260200160001515815260200160001515815260200160068054905081526020018381526020013373ffffffffffffffffffffffffffffffffffffffff168152602001600073ffffffffffffffffffffffffffffffffffffffff1681525090806001815401808255809150506001900390600052602060002090600902016000909190919091506000820151816000015560208201518160010155604082015181600201556060820151816003015560808201518160040160006101000a81548160ff02191690831515021790555060a08201518160040160016101000a81548160ff02191690831515021790555060c0820151816005015560e082015181600601556101008201518160070160006101000a81548173ffffffffffffffffffffffffffffffffffffffff021916908373ffffffffffffffffffffffffffffffffffffffff1602179055506101208201518160080160006101000a81548173ffffffffffffffffffffffffffffffffffffffff021916908373ffffffffffffffffffffffffffffffffffffffff1602179055505050505b60045481141561086057833414610696576040517f08c379a000000000000000000000000000000000000000000000000000000000815260040161068d90612d83565b60405180910390fd5b60006106a5886002548761089a565b905060076040518061014001604052808a815260200189815260200188815260200187815260200160001515815260200160001515815260200160078054905081526020018381526020013373ffffffffffffffffffffffffffffffffffffffff168152602001600073ffffffffffffffffffffffffffffffffffffffff1681525090806001815401808255809150506001900390600052602060002090600902016000909190919091506000820151816000015560208201518160010155604082015181600201556060820151816003015560808201518160040160006101000a81548160ff02191690831515021790555060a08201518160040160016101000a81548160ff02191690831515021790555060c0820151816005015560e082015181600601556101008201518160070160006101000a81548173ffffffffffffffffffffffffffffffffffffffff021916908373ffffffffffffffffffffffffffffffffffffffff1602179055506101208201518160080160006101000a81548173ffffffffffffffffffffffffffffffffffffffff021916908373ffffffffffffffffffffffffffffffffffffffff1602179055505050505b5050505050505050565b60008160405160200161087d9190612e1d565b604051602081830303815290604052805190602001209050919050565b60006108c1836108b3848761258f90919063ffffffff16565b6125a590919063ffffffff16565b90509392505050565b600681815481106108da57600080fd5b90600052602060002090600902016000915090508060000154908060010154908060020154908060030154908060040160009054906101000a900460ff16908060040160019054906101000a900460ff16908060050154908060060154908060070160009054906101000a900473ffffffffffffffffffffffffffffffffffffffff16908060080160009054906101000a900473ffffffffffffffffffffffffffffffffffffffff1690508a565b6109c66040518060400160405280600381526020017f455448000000000000000000000000000000000000000000000000000000000081525061111c565b600181905550610a0a6040518060400160405280600381526020017f43524f000000000000000000000000000000000000000000000000000000000081525061111c565b600281905550565b60606006805480602002602001604051908101604052809291908181526020016000905b82821015610b87578382906000526020600020906009020160405180610140016040529081600082015481526020016001820154815260200160028201548152602001600382015481526020016004820160009054906101000a900460ff161515151581526020016004820160019054906101000a900460ff1615151515815260200160058201548152602001600682015481526020016007820160009054906101000a900473ffffffffffffffffffffffffffffffffffffffff1673ffffffffffffffffffffffffffffffffffffffff1673ffffffffffffffffffffffffffffffffffffffff1681526020016008820160009054906101000a900473ffffffffffffffffffffffffffffffffffffffff1673ffffffffffffffffffffffffffffffffffffffff1673ffffffffffffffffffffffffffffffffffffffff168152505081526020019060010190610a36565b50505050905090565b816000610b9c8261086a565b9050600354811480610baf575060045481145b610bee576040517f08c379a0000000000000000000000000000000000000000000000000000000008152600401610be590612cab565b60405180910390fd5b6000610bf98561086a565b9050600354811415610e885760068481548110610c1957610c18612e34565b5b906000526020600020906009020160070160009054906101000a900473ffffffffffffffffffffffffffffffffffffffff1673ffffffffffffffffffffffffffffffffffffffff163373ffffffffffffffffffffffffffffffffffffffff1614610cb8576040517f08c379a0000000000000000000000000000000000000000000000000000000008152600401610caf90612eaf565b60405180910390fd5b4260068581548110610ccd57610ccc612e34565b5b90600052602060002090600902016002015411158015610d1d575060068481548110610cfc57610cfb612e34565b5b906000526020600020906009020160040160009054906101000a900460ff16155b8015610d59575060068481548110610d3857610d37612e34565b5b906000526020600020906009020160040160019054906101000a900460ff16155b610d98576040517f08c379a0000000000000000000000000000000000000000000000000000000008152600401610d8f90612f41565b60405180910390fd5b60068481548110610dac57610dab612e34565b5b906000526020600020906009020160070160009054906101000a900473ffffffffffffffffffffffffffffffffffffffff1673ffffffffffffffffffffffffffffffffffffffff166108fc60068681548110610e0b57610e0a612e34565b5b9060005260206000209060090201600301549081150290604051600060405180830381858888f19350505050158015610e48573d6000803e3d6000fd5b50600160068581548110610e5f57610e5e612e34565b5b906000526020600020906009020160040160016101000a81548160ff0219169083151502179055505b6004548114156111155760078481548110610ea657610ea5612e34565b5b906000526020600020906009020160070160009054906101000a900473ffffffffffffffffffffffffffffffffffffffff1673ffffffffffffffffffffffffffffffffffffffff163373ffffffffffffffffffffffffffffffffffffffff1614610f45576040517f08c379a0000000000000000000000000000000000000000000000000000000008152600401610f3c90612eaf565b60405180910390fd5b4260078581548110610f5a57610f59612e34565b5b90600052602060002090600902016002015411158015610faa575060078481548110610f8957610f88612e34565b5b906000526020600020906009020160040160009054906101000a900460ff16155b8015610fe6575060078481548110610fc557610fc4612e34565b5b906000526020600020906009020160040160019054906101000a900460ff16155b611025576040517f08c379a000000000000000000000000000000000000000000000000000000000815260040161101c90612f41565b60405180910390fd5b6007848154811061103957611038612e34565b5b906000526020600020906009020160070160009054906101000a900473ffffffffffffffffffffffffffffffffffffffff1673ffffffffffffffffffffffffffffffffffffffff166108fc6007868154811061109857611097612e34565b5b9060005260206000209060090201600301549081150290604051600060405180830381858888f193505050501580156110d5573d6000803e3d6000fd5b506001600785815481106110ec576110eb612e34565b5b906000526020600020906009020160040160016101000a81548160ff0219169083151502179055505b5050505050565b60008060008054906101000a900473ffffffffffffffffffffffffffffffffffffffff1673ffffffffffffffffffffffffffffffffffffffff166365555bcc846040518263ffffffff1660e01b81526004016111789190612fe6565b60606040518083038186803b15801561119057600080fd5b505afa1580156111a4573d6000803e3d6000fd5b505050506040513d601f19601f820116820180604052508101906111c89190613099565b90508060000151915050919050565b8160006111e38261086a565b90506003548114806111f6575060045481145b611235576040517f08c379a000000000000000000000000000000000000000000000000000000000815260040161122c90612cab565b60405180910390fd5b60006112408561086a565b90506003548114156115b6573373ffffffffffffffffffffffffffffffffffffffff166006858154811061127757611276612e34565b5b906000526020600020906009020160080160009054906101000a900473ffffffffffffffffffffffffffffffffffffffff1673ffffffffffffffffffffffffffffffffffffffff16146112ff576040517f08c379a00000000000000000000000000000000000000000000000000000000081526004016112f690613112565b60405180910390fd5b6006848154811061131357611312612e34565b5b906000526020600020906009020160040160009054906101000a900460ff1615611372576040517f08c379a0000000000000000000000000000000000000000000000000000000008152600401611369906131a4565b60405180910390fd5b426006858154811061138757611386612e34565b5b906000526020600020906009020160020154116113d9576040517f08c379a00000000000000000000000000000000000000000000000000000000081526004016113d090613210565b60405180910390fd5b6113e1610988565b600061143a600686815481106113fa576113f9612e34565b5b9060005260206000209060090201600001546001546006888154811061142357611422612e34565b5b90600052602060002090600902016003015461089a565b905080341461147e576040517f08c379a0000000000000000000000000000000000000000000000000000000008152600401611475906132a2565b60405180910390fd5b6006858154811061149257611491612e34565b5b906000526020600020906009020160070160009054906101000a900473ffffffffffffffffffffffffffffffffffffffff1673ffffffffffffffffffffffffffffffffffffffff166108fc829081150290604051600060405180830381858888f19350505050158015611509573d6000803e3d6000fd5b503373ffffffffffffffffffffffffffffffffffffffff166108fc6006878154811061153857611537612e34565b5b9060005260206000209060090201600301549081150290604051600060405180830381858888f19350505050158015611575573d6000803e3d6000fd5b5060016006868154811061158c5761158b612e34565b5b906000526020600020906009020160040160006101000a81548160ff021916908315150217905550505b60045481141561192a573373ffffffffffffffffffffffffffffffffffffffff16600785815481106115eb576115ea612e34565b5b906000526020600020906009020160080160009054906101000a900473ffffffffffffffffffffffffffffffffffffffff1673ffffffffffffffffffffffffffffffffffffffff1614611673576040517f08c379a000000000000000000000000000000000000000000000000000000000815260040161166a90613112565b60405180910390fd5b6007848154811061168757611686612e34565b5b906000526020600020906009020160040160009054906101000a900460ff16156116e6576040517f08c379a00000000000000000000000000000000000000000000000000000000081526004016116dd906131a4565b60405180910390fd5b42600785815481106116fb576116fa612e34565b5b9060005260206000209060090201600201541161174d576040517f08c379a000000000000000000000000000000000000000000000000000000000815260040161174490613210565b60405180910390fd5b611755610988565b60006117ae6007868154811061176e5761176d612e34565b5b9060005260206000209060090201600001546002546007888154811061179757611796612e34565b5b90600052602060002090600902016003015461089a565b90508034146117f2576040517f08c379a00000000000000000000000000000000000000000000000000000000081526004016117e9906132a2565b60405180910390fd5b6007858154811061180657611805612e34565b5b906000526020600020906009020160070160009054906101000a900473ffffffffffffffffffffffffffffffffffffffff1673ffffffffffffffffffffffffffffffffffffffff166108fc829081150290604051600060405180830381858888f1935050505015801561187d573d6000803e3d6000fd5b503373ffffffffffffffffffffffffffffffffffffffff166108fc600787815481106118ac576118ab612e34565b5b9060005260206000209060090201600301549081150290604051600060405180830381858888f193505050501580156118e9573d6000803e3d6000fd5b50600160078681548110611900576118ff612e34565b5b906000526020600020906009020160040160006101000a81548160ff021916908315150217905550505b5050505050565b81600061193d8261086a565b9050600354811480611950575060045481145b61198f576040517f08c379a000000000000000000000000000000000000000000000000000000000815260040161198690612cab565b60405180910390fd5b600061199a8561086a565b9050600354811415611bfd57600684815481106119ba576119b9612e34565b5b906000526020600020906009020160040160019054906101000a900460ff1615611a19576040517f08c379a0000000000000000000000000000000000000000000000000000000008152600401611a1090613334565b60405180910390fd5b4260068581548110611a2e57611a2d612e34565b5b90600052602060002090600902016002015411611a80576040517f08c379a0000000000000000000000000000000000000000000000000000000008152600401611a77906133c6565b60405180910390fd5b60068481548110611a9457611a93612e34565b5b9060005260206000209060090201600101543414611ae7576040517f08c379a0000000000000000000000000000000000000000000000000000000008152600401611ade90613458565b60405180910390fd5b60068481548110611afb57611afa612e34565b5b906000526020600020906009020160070160009054906101000a900473ffffffffffffffffffffffffffffffffffffffff1673ffffffffffffffffffffffffffffffffffffffff166108fc60068681548110611b5a57611b59612e34565b5b9060005260206000209060090201600101549081150290604051600060405180830381858888f19350505050158015611b97573d6000803e3d6000fd5b503360068581548110611bad57611bac612e34565b5b906000526020600020906009020160080160006101000a81548173ffffffffffffffffffffffffffffffffffffffff021916908373ffffffffffffffffffffffffffffffffffffffff1602179055505b600454811415611e5e5760078481548110611c1b57611c1a612e34565b5b906000526020600020906009020160040160019054906101000a900460ff1615611c7a576040517f08c379a0000000000000000000000000000000000000000000000000000000008152600401611c7190613334565b60405180910390fd5b4260078581548110611c8f57611c8e612e34565b5b90600052602060002090600902016002015411611ce1576040517f08c379a0000000000000000000000000000000000000000000000000000000008152600401611cd8906133c6565b60405180910390fd5b60078481548110611cf557611cf4612e34565b5b9060005260206000209060090201600101543414611d48576040517f08c379a0000000000000000000000000000000000000000000000000000000008152600401611d3f90613458565b60405180910390fd5b60078481548110611d5c57611d5b612e34565b5b906000526020600020906009020160070160009054906101000a900473ffffffffffffffffffffffffffffffffffffffff1673ffffffffffffffffffffffffffffffffffffffff166108fc60078681548110611dbb57611dba612e34565b5b9060005260206000209060090201600101549081150290604051600060405180830381858888f19350505050158015611df8573d6000803e3d6000fd5b503360078581548110611e0e57611e0d612e34565b5b906000526020600020906009020160080160006101000a81548173ffffffffffffffffffffffffffffffffffffffff021916908373ffffffffffffffffffffffffffffffffffffffff1602179055505b5050505050565b816000611e718261086a565b9050600354811480611e84575060045481145b611ec3576040517f08c379a0000000000000000000000000000000000000000000000000000000008152600401611eba90612cab565b60405180910390fd5b6000611ece8561086a565b905060035481141561216d5760068481548110611eee57611eed612e34565b5b906000526020600020906009020160070160009054906101000a900473ffffffffffffffffffffffffffffffffffffffff1673ffffffffffffffffffffffffffffffffffffffff163373ffffffffffffffffffffffffffffffffffffffff1614611f8d576040517f08c379a0000000000000000000000000000000000000000000000000000000008152600401611f8490612eaf565b60405180910390fd5b60068481548110611fa157611fa0612e34565b5b906000526020600020906009020160040160019054906101000a900460ff1615801561203e5750600073ffffffffffffffffffffffffffffffffffffffff1660068581548110611ff457611ff3612e34565b5b906000526020600020906009020160080160009054906101000a900473ffffffffffffffffffffffffffffffffffffffff1673ffffffffffffffffffffffffffffffffffffffff16145b61207d576040517f08c379a0000000000000000000000000000000000000000000000000000000008152600401612074906134c4565b60405180910390fd5b6006848154811061209157612090612e34565b5b906000526020600020906009020160070160009054906101000a900473ffffffffffffffffffffffffffffffffffffffff1673ffffffffffffffffffffffffffffffffffffffff166108fc600686815481106120f0576120ef612e34565b5b9060005260206000209060090201600301549081150290604051600060405180830381858888f1935050505015801561212d573d6000803e3d6000fd5b5060016006858154811061214457612143612e34565b5b906000526020600020906009020160040160016101000a81548160ff0219169083151502179055505b60045481141561240a576007848154811061218b5761218a612e34565b5b906000526020600020906009020160070160009054906101000a900473ffffffffffffffffffffffffffffffffffffffff1673ffffffffffffffffffffffffffffffffffffffff163373ffffffffffffffffffffffffffffffffffffffff161461222a576040517f08c379a000000000000000000000000000000000000000000000000000000000815260040161222190612eaf565b60405180910390fd5b6007848154811061223e5761223d612e34565b5b906000526020600020906009020160040160019054906101000a900460ff161580156122db5750600073ffffffffffffffffffffffffffffffffffffffff166007858154811061229157612290612e34565b5b906000526020600020906009020160080160009054906101000a900473ffffffffffffffffffffffffffffffffffffffff1673ffffffffffffffffffffffffffffffffffffffff16145b61231a576040517f08c379a0000000000000000000000000000000000000000000000000000000008152600401612311906134c4565b60405180910390fd5b6007848154811061232e5761232d612e34565b5b906000526020600020906009020160070160009054906101000a900473ffffffffffffffffffffffffffffffffffffffff1673ffffffffffffffffffffffffffffffffffffffff166108fc6007868154811061238d5761238c612e34565b5b9060005260206000209060090201600301549081150290604051600060405180830381858888f193505050501580156123ca573d6000803e3d6000fd5b506001600785815481106123e1576123e0612e34565b5b906000526020600020906009020160040160016101000a81548160ff0219169083151502179055505b5050505050565b60606007805480602002602001604051908101604052809291908181526020016000905b82821015612586578382906000526020600020906009020160405180610140016040529081600082015481526020016001820154815260200160028201548152602001600382015481526020016004820160009054906101000a900460ff161515151581526020016004820160019054906101000a900460ff1615151515815260200160058201548152602001600682015481526020016007820160009054906101000a900473ffffffffffffffffffffffffffffffffffffffff1673ffffffffffffffffffffffffffffffffffffffff1673ffffffffffffffffffffffffffffffffffffffff1681526020016008820160009054906101000a900473ffffffffffffffffffffffffffffffffffffffff1673ffffffffffffffffffffffffffffffffffffffff1673ffffffffffffffffffffffffffffffffffffffff168152505081526020019060010190612435565b50505050905090565b6000818361259d9190613513565b905092915050565b600081836125b3919061359c565b905092915050565b6000604051905090565b600080fd5b600080fd5b6000819050919050565b6125e2816125cf565b81146125ed57600080fd5b50565b6000813590506125ff816125d9565b92915050565b60006020828403121561261b5761261a6125c5565b5b6000612629848285016125f0565b91505092915050565b61263b816125cf565b82525050565b60008115159050919050565b61265681612641565b82525050565b600073ffffffffffffffffffffffffffffffffffffffff82169050919050565b60006126878261265c565b9050919050565b6126978161267c565b82525050565b6000610140820190506126b3600083018d612632565b6126c0602083018c612632565b6126cd604083018b612632565b6126da606083018a612632565b6126e7608083018961264d565b6126f460a083018861264d565b61270160c0830187612632565b61270e60e0830186612632565b61271c61010083018561268e565b61272a61012083018461268e565b9b9a5050505050505050505050565b600080fd5b600080fd5b6000601f19601f8301169050919050565b7f4e487b7100000000000000000000000000000000000000000000000000000000600052604160045260246000fd5b61278c82612743565b810181811067ffffffffffffffff821117156127ab576127aa612754565b5b80604052505050565b60006127be6125bb565b90506127ca8282612783565b919050565b600067ffffffffffffffff8211156127ea576127e9612754565b5b6127f382612743565b9050602081019050919050565b82818337600083830152505050565b600061282261281d846127cf565b6127b4565b90508281526020810184848401111561283e5761283d61273e565b5b612849848285612800565b509392505050565b600082601f83011261286657612865612739565b5b813561287684826020860161280f565b91505092915050565b600080600080600060a0868803121561289b5761289a6125c5565b5b600086013567ffffffffffffffff8111156128b9576128b86125ca565b5b6128c588828901612851565b95505060206128d6888289016125f0565b94505060406128e7888289016125f0565b93505060606128f8888289016125f0565b9250506080612909888289016125f0565b9150509295509295909350565b60006020828403121561292c5761292b6125c5565b5b600082013567ffffffffffffffff81111561294a576129496125ca565b5b61295684828501612851565b91505092915050565b6000819050919050565b6129728161295f565b82525050565b600060208201905061298d6000830184612969565b92915050565b6000806000606084860312156129ac576129ab6125c5565b5b60006129ba868287016125f0565b93505060206129cb868287016125f0565b92505060406129dc868287016125f0565b9150509250925092565b60006020820190506129fb6000830184612632565b92915050565b600081519050919050565b600082825260208201905092915050565b6000819050602082019050919050565b612a36816125cf565b82525050565b612a4581612641565b82525050565b612a548161267c565b82525050565b61014082016000820151612a716000850182612a2d565b506020820151612a846020850182612a2d565b506040820151612a976040850182612a2d565b506060820151612aaa6060850182612a2d565b506080820151612abd6080850182612a3c565b5060a0820151612ad060a0850182612a3c565b5060c0820151612ae360c0850182612a2d565b5060e0820151612af660e0850182612a2d565b50610100820151612b0b610100850182612a4b565b50610120820151612b20610120850182612a4b565b50505050565b6000612b328383612a5a565b6101408301905092915050565b6000602082019050919050565b6000612b5782612a01565b612b618185612a0c565b9350612b6c83612a1d565b8060005b83811015612b9d578151612b848882612b26565b9750612b8f83612b3f565b925050600181019050612b70565b5085935050505092915050565b60006020820190508181036000830152612bc48184612b4c565b905092915050565b60008060408385031215612be357612be26125c5565b5b600083013567ffffffffffffffff811115612c0157612c006125ca565b5b612c0d85828601612851565b9250506020612c1e858286016125f0565b9150509250929050565b600082825260208201905092915050565b7f4f6e6c792045544820616e642043524f20746f6b656e7320617265207375707060008201527f6f72746564000000000000000000000000000000000000000000000000000000602082015250565b6000612c95602583612c28565b9150612ca082612c39565b604082019050919050565b60006020820190508181036000830152612cc481612c88565b9050919050565b7f496e636f727265637420616d6f756e74206f662045544820737570706c696564600082015250565b6000612d01602083612c28565b9150612d0c82612ccb565b602082019050919050565b60006020820190508181036000830152612d3081612cf4565b9050919050565b7f496e636f727265637420616d6f756e74206f662043524f20737570706c696564600082015250565b6000612d6d602083612c28565b9150612d7882612d37565b602082019050919050565b60006020820190508181036000830152612d9c81612d60565b9050919050565b600081519050919050565b600081905092915050565b60005b83811015612dd7578082015181840152602081019050612dbc565b83811115612de6576000848401525b50505050565b6000612df782612da3565b612e018185612dae565b9350612e11818560208601612db9565b80840191505092915050565b6000612e298284612dec565b915081905092915050565b7f4e487b7100000000000000000000000000000000000000000000000000000000600052603260045260246000fd5b7f596f7520646964206e6f742077726974652074686973206f7074696f6e000000600082015250565b6000612e99601d83612c28565b9150612ea482612e63565b602082019050919050565b60006020820190508181036000830152612ec881612e8c565b9050919050565b7f54686973206f7074696f6e206973206e6f7420656c696769626c6520666f722060008201527f7769746864726177000000000000000000000000000000000000000000000000602082015250565b6000612f2b602883612c28565b9150612f3682612ecf565b604082019050919050565b60006020820190508181036000830152612f5a81612f1e565b9050919050565b6000612f6c82612da3565b612f768185612c28565b9350612f86818560208601612db9565b612f8f81612743565b840191505092915050565b7f5553440000000000000000000000000000000000000000000000000000000000600082015250565b6000612fd0600383612c28565b9150612fdb82612f9a565b602082019050919050565b600060408201905081810360008301526130008184612f61565b9050818103602083015261301381612fc3565b905092915050565b600080fd5b60008151905061302f816125d9565b92915050565b60006060828403121561304b5761304a61301b565b5b61305560606127b4565b9050600061306584828501613020565b600083015250602061307984828501613020565b602083015250604061308d84828501613020565b60408301525092915050565b6000606082840312156130af576130ae6125c5565b5b60006130bd84828501613035565b91505092915050565b7f596f7520646f206e6f74206f776e2074686973206f7074696f6e000000000000600082015250565b60006130fc601a83612c28565b9150613107826130c6565b602082019050919050565b6000602082019050818103600083015261312b816130ef565b9050919050565b7f4f7074696f6e2068617320616c7265616479206265656e20657865726369736560008201527f6400000000000000000000000000000000000000000000000000000000000000602082015250565b600061318e602183612c28565b915061319982613132565b604082019050919050565b600060208201905081810360008301526131bd81613181565b9050919050565b7f4f7074696f6e2069732065787069726564000000000000000000000000000000600082015250565b60006131fa601183612c28565b9150613205826131c4565b602082019050919050565b60006020820190508181036000830152613229816131ed565b9050919050565b7f496e636f727265637420636f696e20616d6f756e742073656e7420746f20657860008201527f6572636973650000000000000000000000000000000000000000000000000000602082015250565b600061328c602683612c28565b915061329782613230565b604082019050919050565b600060208201905081810360008301526132bb8161327f565b9050919050565b7f4f7074696f6e2069732063616e63656c656420616e642063616e6e6f7420626560008201527f20626f7567687400000000000000000000000000000000000000000000000000602082015250565b600061331e602783612c28565b9150613329826132c2565b604082019050919050565b6000602082019050818103600083015261334d81613311565b9050919050565b7f4f7074696f6e206973206578706972656420616e642063616e6e6f742062652060008201527f626f756768740000000000000000000000000000000000000000000000000000602082015250565b60006133b0602683612c28565b91506133bb82613354565b604082019050919050565b600060208201905081810360008301526133df816133a3565b9050919050565b7f496e636f727265637420616d6f756e74206f662063757272656e7420636f696e60008201527f2073656e7420666f72207072656d69756d000000000000000000000000000000602082015250565b6000613442603183612c28565b915061344d826133e6565b604082019050919050565b6000602082019050818103600083015261347181613435565b9050919050565b7f54686973206f7074696f6e2063616e6e6f742062652063616e63656c65640000600082015250565b60006134ae601e83612c28565b91506134b982613478565b602082019050919050565b600060208201905081810360008301526134dd816134a1565b9050919050565b7f4e487b7100000000000000000000000000000000000000000000000000000000600052601160045260246000fd5b600061351e826125cf565b9150613529836125cf565b9250817fffffffffffffffffffffffffffffffffffffffffffffffffffffffffffffffff0483118215151615613562576135616134e4565b5b828202905092915050565b7f4e487b7100000000000000000000000000000000000000000000000000000000600052601260045260246000fd5b60006135a7826125cf565b91506135b2836125cf565b9250826135c2576135c161356d565b5b82820490509291505056fea2646970667358221220267787abcb1373d47733f3cc442645cf2b0ffd55f0449e53360757846144e0a764736f6c63430008090033",
  "linkReferences": {},
  "deployedLinkReferences": {}
}